Archive member included to satisfy reference by file (symbol)

G:/data/mydata/STM32_PIL/Discrete_ert_rtw/coderassumptions/lib/Discrete_ca.lib(Discrete_ca.o)
                              coder_assumptions_app.o (CA_Discrete_HWRes)
G:/data/mydata/STM32_PIL/Discrete_ert_rtw/coderassumptions/lib/Discrete_ca.lib(coder_assumptions_hwimpl.o)
                              G:/data/mydata/STM32_PIL/Discrete_ert_rtw/coderassumptions/lib/Discrete_ca.lib(Discrete_ca.o) (caVerifyPortableWordSizes)
G:/data/mydata/STM32_PIL/Discrete_ert_rtw/coderassumptions/lib/Discrete_ca.lib(coder_assumptions_flt.o)
                              G:/data/mydata/STM32_PIL/Discrete_ert_rtw/coderassumptions/lib/Discrete_ca.lib(coder_assumptions_hwimpl.o) (denormalAsZero)
c:/progra~3/matlab/suppor~1/r2018b/3p778c~1.ins/gnuarm~1.ins/win/bin/../lib/gcc/arm-none-eabi/7.2.1/thumb/v7e-m/fpv4-sp/hard\libgcc.a(_arm_addsubdf3.o)
                              ../Discrete.o (__aeabi_dsub)
c:/progra~3/matlab/suppor~1/r2018b/3p778c~1.ins/gnuarm~1.ins/win/bin/../lib/gcc/arm-none-eabi/7.2.1/thumb/v7e-m/fpv4-sp/hard\libgcc.a(_arm_muldivdf3.o)
                              ../Discrete.o (__aeabi_dmul)
c:/progra~3/matlab/suppor~1/r2018b/3p778c~1.ins/gnuarm~1.ins/win/bin/../lib/gcc/arm-none-eabi/7.2.1/thumb/v7e-m/fpv4-sp/hard\libgcc.a(_arm_cmpdf2.o)
                              G:/data/mydata/STM32_PIL/Discrete_ert_rtw/coderassumptions/lib/Discrete_ca.lib(coder_assumptions_hwimpl.o) (__aeabi_dcmpeq)
c:/progra~3/matlab/suppor~1/r2018b/3p778c~1.ins/gnuarm~1.ins/win/bin/../lib/gcc/arm-none-eabi/7.2.1/../../../../arm-none-eabi/lib/thumb/v7e-m/fpv4-sp/hard\libc_nano.a(lib_a-exit.o)
                              c:/progra~3/matlab/suppor~1/r2018b/3p778c~1.ins/gnuarm~1.ins/win/bin/../lib/gcc/arm-none-eabi/7.2.1/../../../../arm-none-eabi/lib/thumb/v7e-m/fpv4-sp/hard/crt0.o (exit)
c:/progra~3/matlab/suppor~1/r2018b/3p778c~1.ins/gnuarm~1.ins/win/bin/../lib/gcc/arm-none-eabi/7.2.1/../../../../arm-none-eabi/lib/thumb/v7e-m/fpv4-sp/hard\libc_nano.a(lib_a-impure.o)
                              c:/progra~3/matlab/suppor~1/r2018b/3p778c~1.ins/gnuarm~1.ins/win/bin/../lib/gcc/arm-none-eabi/7.2.1/../../../../arm-none-eabi/lib/thumb/v7e-m/fpv4-sp/hard\libc_nano.a(lib_a-exit.o) (_global_impure_ptr)
c:/progra~3/matlab/suppor~1/r2018b/3p778c~1.ins/gnuarm~1.ins/win/bin/../lib/gcc/arm-none-eabi/7.2.1/../../../../arm-none-eabi/lib/thumb/v7e-m/fpv4-sp/hard\libc_nano.a(lib_a-init.o)
                              c:/progra~3/matlab/suppor~1/r2018b/3p778c~1.ins/gnuarm~1.ins/win/bin/../lib/gcc/arm-none-eabi/7.2.1/../../../../arm-none-eabi/lib/thumb/v7e-m/fpv4-sp/hard/crt0.o (__libc_init_array)
c:/progra~3/matlab/suppor~1/r2018b/3p778c~1.ins/gnuarm~1.ins/win/bin/../lib/gcc/arm-none-eabi/7.2.1/../../../../arm-none-eabi/lib/thumb/v7e-m/fpv4-sp/hard\libc_nano.a(lib_a-memcpy-stub.o)
                              coder_assumptions_data_stream.o (memcpy)
c:/progra~3/matlab/suppor~1/r2018b/3p778c~1.ins/gnuarm~1.ins/win/bin/../lib/gcc/arm-none-eabi/7.2.1/../../../../arm-none-eabi/lib/thumb/v7e-m/fpv4-sp/hard\libc_nano.a(lib_a-memset.o)
                              c:/progra~3/matlab/suppor~1/r2018b/3p778c~1.ins/gnuarm~1.ins/win/bin/../lib/gcc/arm-none-eabi/7.2.1/../../../../arm-none-eabi/lib/thumb/v7e-m/fpv4-sp/hard/crt0.o (memset)
c:/progra~3/matlab/suppor~1/r2018b/3p778c~1.ins/gnuarm~1.ins/win/bin/../lib/gcc/arm-none-eabi/7.2.1/../../../../arm-none-eabi/lib/thumb/v7e-m/fpv4-sp/hard\libc_nano.a(lib_a-reent.o)
                              syscalls_stm32f4xx.o (errno)
c:/progra~3/matlab/suppor~1/r2018b/3p778c~1.ins/gnuarm~1.ins/win/bin/../lib/gcc/arm-none-eabi/7.2.1/../../../../arm-none-eabi/lib/thumb/v7e-m/fpv4-sp/hard\libc_nano.a(lib_a-nano-freer.o)
                              c:/progra~3/matlab/suppor~1/r2018b/3p778c~1.ins/gnuarm~1.ins/win/bin/../lib/gcc/arm-none-eabi/7.2.1/../../../../arm-none-eabi/lib/thumb/v7e-m/fpv4-sp/hard\libc_nano.a(lib_a-reent.o) (_free_r)
c:/progra~3/matlab/suppor~1/r2018b/3p778c~1.ins/gnuarm~1.ins/win/bin/../lib/gcc/arm-none-eabi/7.2.1/../../../../arm-none-eabi/lib/thumb/v7e-m/fpv4-sp/hard\libc_nano.a(lib_a-nano-mallocr.o)
                              c:/progra~3/matlab/suppor~1/r2018b/3p778c~1.ins/gnuarm~1.ins/win/bin/../lib/gcc/arm-none-eabi/7.2.1/../../../../arm-none-eabi/lib/thumb/v7e-m/fpv4-sp/hard\libc_nano.a(lib_a-nano-freer.o) (__malloc_free_list)
c:/progra~3/matlab/suppor~1/r2018b/3p778c~1.ins/gnuarm~1.ins/win/bin/../lib/gcc/arm-none-eabi/7.2.1/../../../../arm-none-eabi/lib/thumb/v7e-m/fpv4-sp/hard\libc_nano.a(lib_a-sbrkr.o)
                              c:/progra~3/matlab/suppor~1/r2018b/3p778c~1.ins/gnuarm~1.ins/win/bin/../lib/gcc/arm-none-eabi/7.2.1/../../../../arm-none-eabi/lib/thumb/v7e-m/fpv4-sp/hard\libc_nano.a(lib_a-nano-mallocr.o) (_sbrk_r)
c:/progra~3/matlab/suppor~1/r2018b/3p778c~1.ins/gnuarm~1.ins/win/bin/../lib/gcc/arm-none-eabi/7.2.1/../../../../arm-none-eabi/lib/thumb/v7e-m/fpv4-sp/hard\libc_nano.a(lib_a-mlock.o)
                              c:/progra~3/matlab/suppor~1/r2018b/3p778c~1.ins/gnuarm~1.ins/win/bin/../lib/gcc/arm-none-eabi/7.2.1/../../../../arm-none-eabi/lib/thumb/v7e-m/fpv4-sp/hard\libc_nano.a(lib_a-nano-freer.o) (__malloc_lock)

Allocating common symbols
Common symbol       size              file

errno               0x4               c:/progra~3/matlab/suppor~1/r2018b/3p778c~1.ins/gnuarm~1.ins/win/bin/../lib/gcc/arm-none-eabi/7.2.1/../../../../arm-none-eabi/lib/thumb/v7e-m/fpv4-sp/hard\libc_nano.a(lib_a-reent.o)
Discrete_U          0x8               ../Discrete.o
CA_Discrete_HWRes   0x22              G:/data/mydata/STM32_PIL/Discrete_ert_rtw/coderassumptions/lib/Discrete_ca.lib(Discrete_ca.o)
Discrete_DW         0x10              ../Discrete.o
CA_Discrete_ActHW   0x48              G:/data/mydata/STM32_PIL/Discrete_ert_rtw/coderassumptions/lib/Discrete_ca.lib(Discrete_ca.o)
Discrete_M_         0x4               ../Discrete.o
aGlobalInt          0x4               G:/data/mydata/STM32_PIL/Discrete_ert_rtw/coderassumptions/lib/Discrete_ca.lib(coder_assumptions_hwimpl.o)
Discrete_Y          0x8               ../Discrete.o
CA_Discrete_PWSRes  0x2               G:/data/mydata/STM32_PIL/Discrete_ert_rtw/coderassumptions/lib/Discrete_ca.lib(Discrete_ca.o)

Discarded input sections

 .text          0x00000000        0x0 c:/progra~3/matlab/suppor~1/r2018b/3p778c~1.ins/gnuarm~1.ins/win/bin/../lib/gcc/arm-none-eabi/7.2.1/thumb/v7e-m/fpv4-sp/hard/crti.o
 .data          0x00000000        0x0 c:/progra~3/matlab/suppor~1/r2018b/3p778c~1.ins/gnuarm~1.ins/win/bin/../lib/gcc/arm-none-eabi/7.2.1/thumb/v7e-m/fpv4-sp/hard/crti.o
 .bss           0x00000000        0x0 c:/progra~3/matlab/suppor~1/r2018b/3p778c~1.ins/gnuarm~1.ins/win/bin/../lib/gcc/arm-none-eabi/7.2.1/thumb/v7e-m/fpv4-sp/hard/crti.o
 .data          0x00000000        0x4 c:/progra~3/matlab/suppor~1/r2018b/3p778c~1.ins/gnuarm~1.ins/win/bin/../lib/gcc/arm-none-eabi/7.2.1/thumb/v7e-m/fpv4-sp/hard/crtbegin.o
 .data          0x00000000        0x0 c:/progra~3/matlab/suppor~1/r2018b/3p778c~1.ins/gnuarm~1.ins/win/bin/../lib/gcc/arm-none-eabi/7.2.1/../../../../arm-none-eabi/lib/thumb/v7e-m/fpv4-sp/hard/crt0.o
 .bss           0x00000000        0x0 c:/progra~3/matlab/suppor~1/r2018b/3p778c~1.ins/gnuarm~1.ins/win/bin/../lib/gcc/arm-none-eabi/7.2.1/../../../../arm-none-eabi/lib/thumb/v7e-m/fpv4-sp/hard/crt0.o
 .ARM.extab     0x00000000        0x0 c:/progra~3/matlab/suppor~1/r2018b/3p778c~1.ins/gnuarm~1.ins/win/bin/../lib/gcc/arm-none-eabi/7.2.1/../../../../arm-none-eabi/lib/thumb/v7e-m/fpv4-sp/hard/crt0.o
 .text          0x00000000        0x0 coder_assumptions_app.o
 .data          0x00000000        0x0 coder_assumptions_app.o
 .bss           0x00000000        0x0 coder_assumptions_app.o
 .text          0x00000000        0x0 coder_assumptions_data_stream.o
 .data          0x00000000        0x0 coder_assumptions_data_stream.o
 .bss           0x00000000        0x0 coder_assumptions_data_stream.o
 .rodata.CODERASSUMPTGTAPPSVC_ERROR
                0x00000000        0x1 coder_assumptions_data_stream.o
 .rodata.CODERASSUMPTGTAPPSVC_SUCCESS
                0x00000000        0x1 coder_assumptions_data_stream.o
 .text.coderAssumptionsTerminate
Memory Configuration

Name             Origin             Length             Attributes
FLASH            0x08000000         0x00100000         xr
SRAM             0x20000000         0x00020000         xrw
CCMRAM           0x10000000         0x00010000         rw
BACKUPRAM        0x40024000         0x00001000         rw
*default*        0x00000000         0xffffffff

Linker script and memory map

LOAD c:/progra~3/matlab/suppor~1/r2018b/3p778c~1.ins/gnuarm~1.ins/win/bin/../lib/gcc/arm-none-eabi/7.2.1/thumb/v7e-m/fpv4-sp/hard/crti.o
LOAD c:/progra~3/matlab/suppor~1/r2018b/3p778c~1.ins/gnuarm~1.ins/win/bin/../lib/gcc/arm-none-eabi/7.2.1/thumb/v7e-m/fpv4-sp/hard/crtbegin.o
LOAD c:/progra~3/matlab/suppor~1/r2018b/3p778c~1.ins/gnuarm~1.ins/win/bin/../lib/gcc/arm-none-eabi/7.2.1/../../../../arm-none-eabi/lib/thumb/v7e-m/fpv4-sp/hard/crt0.o
LOAD coder_assumptions_app.o
LOAD coder_assumptions_data_stream.o
LOAD coder_assumptions_rtiostream.o
LOAD misc.o
LOAD pil_main_stm32f4xx.o
LOAD rtiostream_serial_dma_stm32f4xx.o
LOAD rtiostream_utils.o
LOAD startup_stm32f4xx.o
LOAD stm32f4xx_dma.o
LOAD stm32f4xx_gpio.o
LOAD stm32f4xx_rcc.o
LOAD stm32f4xx_usart.o
LOAD syscalls_stm32f4xx.o
LOAD system_stm32f4xx.o
LOAD xil_data_stream.o
LOAD xil_interface.o
LOAD xil_interface_lib.o
LOAD xil_rtiostream.o
LOAD xil_services.o
LOAD xilcomms_rtiostream.o
LOAD ../Discrete.o
LOAD ../Discrete_data.o
LOAD G:/data/mydata/STM32_PIL/Discrete_ert_rtw/coderassumptions/lib/Discrete_ca.lib
LOAD C:/ProgramData/MATLAB/SupportPackages/R2018b/3P.instrset/cmsis.instrset/CMSIS/Lib/GCC/libarm_cortexM4lf_math.a
LOAD C:/ProgramData/MATLAB/SupportPackages/R2018b/3P.instrset/cmsis.instrset/CMSIS/RTOS/RTX/LIB/GCC/libRTX_CM4.a
LOAD c:/progra~3/matlab/suppor~1/r2018b/3p778c~1.ins/gnuarm~1.ins/win/bin/../lib/gcc/arm-none-eabi/7.2.1/../../../../arm-none-eabi/lib/thumb/v7e-m/fpv4-sp/hard\libstdc++_nano.a
LOAD c:/progra~3/matlab/suppor~1/r2018b/3p778c~1.ins/gnuarm~1.ins/win/bin/../lib/gcc/arm-none-eabi/7.2.1/../../../../arm-none-eabi/lib/thumb/v7e-m/fpv4-sp/hard\libm.a
START GROUP
LOAD c:/progra~3/matlab/suppor~1/r2018b/3p778c~1.ins/gnuarm~1.ins/win/bin/../lib/gcc/arm-none-eabi/7.2.1/thumb/v7e-m/fpv4-sp/hard\libgcc.a
LOAD c:/progra~3/matlab/suppor~1/r2018b/3p778c~1.ins/gnuarm~1.ins/win/bin/../lib/gcc/arm-none-eabi/7.2.1/../../../../arm-none-eabi/lib/thumb/v7e-m/fpv4-sp/hard\libc_nano.a
END GROUP
START GROUP
LOAD c:/progra~3/matlab/suppor~1/r2018b/3p778c~1.ins/gnuarm~1.ins/win/bin/../lib/gcc/arm-none-eabi/7.2.1/thumb/v7e-m/fpv4-sp/hard\libgcc.a
LOAD c:/progra~3/matlab/suppor~1/r2018b/3p778c~1.ins/gnuarm~1.ins/win/bin/../lib/gcc/arm-none-eabi/7.2.1/../../../../arm-none-eabi/lib/thumb/v7e-m/fpv4-sp/hard\libc_nano.a
END GROUP
LOAD c:/progra~3/matlab/suppor~1/r2018b/3p778c~1.ins/gnuarm~1.ins/win/bin/../lib/gcc/arm-none-eabi/7.2.1/thumb/v7e-m/fpv4-sp/hard/crtend.o
LOAD c:/progra~3/matlab/suppor~1/r2018b/3p778c~1.ins/gnuarm~1.ins/win/bin/../lib/gcc/arm-none-eabi/7.2.1/thumb/v7e-m/fpv4-sp/hard/crtn.o

.text           0x08000000     0x4358
 *(.vectors)
 .vectors       0x08000000      0x188 startup_stm32f4xx.o
                0x08000000                g_pfnVectors
 *(.text*)
 .text          0x08000188       0x40 c:/progra~3/matlab/suppor~1/r2018b/3p778c~1.ins/gnuarm~1.ins/win/bin/../lib/gcc/arm-none-eabi/7.2.1/thumb/v7e-m/fpv4-sp/hard/crtbegin.o
 .text          0x080001c8       0x74 c:/progra~3/matlab/suppor~1/r2018b/3p778c~1.ins/gnuarm~1.ins/win/bin/../lib/gcc/arm-none-eabi/7.2.1/../../../../arm-none-eabi/lib/thumb/v7e-m/fpv4-sp/hard/crt0.o
                0x080001c8                _start
                0x080001c8                _mainCRTStartup
 .text.sendResult
                0x0800023c       0xa8 coder_assumptions_app.o
 .text.transmitMemUnitBytes
                0x080002e4       0x3e coder_assumptions_app.o
 *fill*         0x08000322        0x2 
 .text.sendPWS  0x08000324       0xc8 coder_assumptions_app.o
 .text.sendHWImpl1
                0x080003ec      0x120 coder_assumptions_app.o
 .text.sendHWImpl2
                0x0800050c      0x120 coder_assumptions_app.o
 .text.sendHWImpl3
                0x0800062c       0xec coder_assumptions_app.o
 .text.sendHWImpl4
                0x08000718       0xec coder_assumptions_app.o
 .text.sendHardwareChecks
                0x08000804       0xf0 coder_assumptions_app.o
 .text.runChecks
                0x080008f4       0xb6 coder_assumptions_app.o
 .text.coderAssumptionsRun
                0x080009aa       0x18 coder_assumptions_app.o
                0x080009aa                coderAssumptionsRun
 *fill*         0x080009c2        0x2 
 .text.coderAssumptionsWriteData
                0x080009c4       0x6c coder_assumptions_data_stream.o
                0x080009c4                coderAssumptionsWriteData
 .text.resetCoderAssumptionsWriteBuffer
                0x08000a30       0x40 coder_assumptions_data_stream.o
                0x08000a30                resetCoderAssumptionsWriteBuffer
 .text.coderAssumptionsSendWriteBuffer
                0x08000a70       0x40 coder_assumptions_data_stream.o
                0x08000a70                coderAssumptionsSendWriteBuffer
 .text.coderAssumptionsInit
                0x08000ab0       0x20 coder_assumptions_data_stream.o
                0x08000ab0                coderAssumptionsInit
 .text.coderAssumpTgtAppSvcCreate
                0x08000ad0       0x10 coder_assumptions_rtiostream.o
                0x08000ad0                coderAssumpTgtAppSvcCreate
 .text.coderAssumpTgtAppSvcAllocBuffer
                0x08000ae0       0x24 coder_assumptions_rtiostream.o
                0x08000ae0                coderAssumpTgtAppSvcAllocBuffer
 .text.coderAssumpTgtAppSvcGetBufferDataPtr
                0x08000b04       0x1c coder_assumptions_rtiostream.o
                0x08000b04                coderAssumpTgtAppSvcGetBufferDataPtr
 .text.coderAssumpTgtAppSvcSend
                0x08000b20       0x24 coder_assumptions_rtiostream.o
                0x08000b20                coderAssumpTgtAppSvcSend
 .text.NVIC_Init
                0x08000b44       0xc4 misc.o
                0x08000b44                NVIC_Init
 .text.main     0x08000c08       0x62 pil_main_stm32f4xx.o
                0x08000c08                main
 *fill*         0x08000c6a        0x2 
 .text.rtIOStreamOpen
                0x08000c6c       0x70 rtiostream_serial_dma_stm32f4xx.o
                0x08000c6c                rtIOStreamOpen
 .text.rtIOStreamSend
                0x08000cdc       0x84 rtiostream_serial_dma_stm32f4xx.o
                0x08000cdc                rtIOStreamSend
 .text.DMA1_Stream6_IRQHandler
                0x08000d60       0x28 rtiostream_serial_dma_stm32f4xx.o
                0x08000d60                DMA1_Stream6_IRQHandler
 .text.rtIOStreamRecv
                0x08000d88       0x90 rtiostream_serial_dma_stm32f4xx.o
                0x08000d88                rtIOStreamRecv
 .text.DMA_RxInit
                0x08000e18       0xe8 rtiostream_serial_dma_stm32f4xx.o
 .text.DMA_TxInit
                0x08000f00       0xac rtiostream_serial_dma_stm32f4xx.o
 .text.UART_getRxBytes
                0x08000fac       0x50 rtiostream_serial_dma_stm32f4xx.o
 .text.DMA1_Stream5_IRQHandler
                0x08000ffc       0x28 rtiostream_serial_dma_stm32f4xx.o
                0x08000ffc                DMA1_Stream5_IRQHandler
 .text.USART2_init
                0x08001024       0xa0 rtiostream_serial_dma_stm32f4xx.o
 .text.rtIOStreamBlockingSend
                0x080010c4       0x64 rtiostream_utils.o
                0x080010c4                rtIOStreamBlockingSend
 .text.rtIOStreamBlockingRecv
                0x08001128       0x64 rtiostream_utils.o
                0x08001128                rtIOStreamBlockingRecv
 .text.Default_ResetHandler
                0x0800118c       0x60 startup_stm32f4xx.o
                0x0800118c                Reset_Handler
                0x0800118c                Default_ResetHandler
 .text.Default_Handler
                0x080011ec        0x6 startup_stm32f4xx.o
                0x080011ec                RTC_Alarm_IRQHandler
                0x080011ec                HASH_RNG_IRQHandler
                0x080011ec                EXTI2_IRQHandler
                0x080011ec                TIM8_CC_IRQHandler
                0x080011ec                DebugMon_Handler
                0x080011ec                TIM1_CC_IRQHandler
                0x080011ec                DMA2_Stream5_IRQHandler
                0x080011ec                HardFault_Handler
                0x080011ec                SysTick_Handler
                0x080011ec                PVD_IRQHandler
                0x080011ec                SDIO_IRQHandler
                0x080011ec                TAMP_STAMP_IRQHandler
                0x080011ec                PendSV_Handler
                0x080011ec                NMI_Handler
                0x080011ec                CAN2_RX1_IRQHandler
                0x080011ec                EXTI3_IRQHandler
                0x080011ec                TIM8_TRG_COM_TIM14_IRQHandler
                0x080011ec                TIM1_UP_TIM10_IRQHandler
                0x080011ec                TIM8_UP_TIM13_IRQHandler
                0x080011ec                I2C3_ER_IRQHandler
                0x080011ec                EXTI0_IRQHandler
                0x080011ec                I2C2_EV_IRQHandler
                0x080011ec                DMA1_Stream2_IRQHandler
                0x080011ec                CAN1_RX0_IRQHandler
                0x080011ec                FPU_IRQHandler
                0x080011ec                OTG_HS_WKUP_IRQHandler
                0x080011ec                UsageFault_Handler
                0x080011ec                CAN2_SCE_IRQHandler
                0x080011ec                DMA2_Stream2_IRQHandler
                0x080011ec                SPI1_IRQHandler
                0x080011ec                TIM6_DAC_IRQHandler
                0x080011ec                TIM1_BRK_TIM9_IRQHandler
                0x080011ec                DCMI_IRQHandler
                0x080011ec                CAN2_RX0_IRQHandler
                0x080011ec                DMA2_Stream3_IRQHandler
                0x080011ec                USART6_IRQHandler
                0x080011ec                USART3_IRQHandler
                0x080011ec                CRYP_IRQHandler
                0x080011ec                CAN1_RX1_IRQHandler
                0x080011ec                UART5_IRQHandler
                0x080011ec                DMA2_Stream0_IRQHandler
                0x080011ec                TIM4_IRQHandler
                0x080011ec                I2C1_EV_IRQHandler
                0x080011ec                DMA1_Stream1_IRQHandler
                0x080011ec                UART4_IRQHandler
                0x080011ec                TIM3_IRQHandler
                0x080011ec                RCC_IRQHandler
                0x080011ec                TIM8_BRK_TIM12_IRQHandler
                0x080011ec                EXTI15_10_IRQHandler
                0x080011ec                ADC_IRQHandler
                0x080011ec                DMA1_Stream7_IRQHandler
                0x080011ec                TIM7_IRQHandler
                0x080011ec                CAN2_TX_IRQHandler
                0x080011ec                TIM5_IRQHandler
                0x080011ec                DMA2_Stream7_IRQHandler
                0x080011ec                I2C3_EV_IRQHandler
                0x080011ec                EXTI9_5_IRQHandler
                0x080011ec                RTC_WKUP_IRQHandler
                0x080011ec                ETH_WKUP_IRQHandler
                0x080011ec                SPI2_IRQHandler
                0x080011ec                OTG_HS_EP1_IN_IRQHandler
                0x080011ec                MemManage_Handler
                0x080011ec                DMA1_Stream0_IRQHandler
                0x080011ec                CAN1_TX_IRQHandler
                0x080011ec                SVC_Handler
                0x080011ec                EXTI4_IRQHandler
                0x080011ec                FSMC_IRQHandler
                0x080011ec                ETH_IRQHandler
                0x080011ec                OTG_HS_EP1_OUT_IRQHandler
                0x080011ec                WWDG_IRQHandler
                0x080011ec                TIM2_IRQHandler
                0x080011ec                OTG_FS_WKUP_IRQHandler
                0x080011ec                TIM1_TRG_COM_TIM11_IRQHandler
                0x080011ec                OTG_HS_IRQHandler
                0x080011ec                EXTI1_IRQHandler
                0x080011ec                USART2_IRQHandler
                0x080011ec                I2C2_ER_IRQHandler
                0x080011ec                DMA2_Stream1_IRQHandler
                0x080011ec                CAN1_SCE_IRQHandler
                0x080011ec                FLASH_IRQHandler
                0x080011ec                DMA2_Stream4_IRQHandler
                0x080011ec                BusFault_Handler
                0x080011ec                USART1_IRQHandler
                0x080011ec                OTG_FS_IRQHandler
                0x080011ec                SPI3_IRQHandler
                0x080011ec                DMA1_Stream4_IRQHandler
                0x080011ec                I2C1_ER_IRQHandler
                0x080011ec                DMA2_Stream6_IRQHandler
                0x080011ec                DMA1_Stream3_IRQHandler
 *fill*         0x080011f2        0x2 
 .text.DMA_DeInit
                0x080011f4      0x1a8 stm32f4xx_dma.o
                0x080011f4                DMA_DeInit
 .text.DMA_Init
                0x0800139c       0xb0 stm32f4xx_dma.o
                0x0800139c                DMA_Init
 .text.DMA_Cmd  0x0800144c       0x38 stm32f4xx_dma.o
                0x0800144c                DMA_Cmd
 .text.DMA_GetCurrDataCounter
                0x08001484       0x1a stm32f4xx_dma.o
                0x08001484                DMA_GetCurrDataCounter
 .text.DMA_GetCmdStatus
                0x0800149e       0x30 stm32f4xx_dma.o
                0x0800149e                DMA_GetCmdStatus
 .text.DMA_ITConfig
                0x080014ce       0x74 stm32f4xx_dma.o
                0x080014ce                DMA_ITConfig
 *fill*         0x08001542        0x2 
 .text.DMA_GetITStatus
                0x08001544       0xb0 stm32f4xx_dma.o
                0x08001544                DMA_GetITStatus
 .text.DMA_ClearITPendingBit
                0x080015f4       0x5c stm32f4xx_dma.o
                0x080015f4                DMA_ClearITPendingBit
 .text.GPIO_Init
                0x08001650      0x11c stm32f4xx_gpio.o
                0x08001650                GPIO_Init
 .text.GPIO_StructInit
                0x0800176c       0x34 stm32f4xx_gpio.o
                0x0800176c                GPIO_StructInit
 .text.GPIO_PinAFConfig
                0x080017a0       0x92 stm32f4xx_gpio.o
                0x080017a0                GPIO_PinAFConfig
 *fill*         0x08001832        0x2 
 .text.RCC_GetClocksFreq
                0x08001834      0x150 stm32f4xx_rcc.o
                0x08001834                RCC_GetClocksFreq
 .text.RCC_AHB1PeriphClockCmd
                0x08001984       0x40 stm32f4xx_rcc.o
                0x08001984                RCC_AHB1PeriphClockCmd
 .text.RCC_APB1PeriphClockCmd
                0x080019c4       0x40 stm32f4xx_rcc.o
                0x080019c4                RCC_APB1PeriphClockCmd
 .text.USART_Init
                0x08001a04      0x174 stm32f4xx_usart.o
                0x08001a04                USART_Init
 .text.USART_StructInit
                0x08001b78       0x3a stm32f4xx_usart.o
                0x08001b78                USART_StructInit
 .text.USART_Cmd
                0x08001bb2       0x40 stm32f4xx_usart.o
                0x08001bb2                USART_Cmd
 .text.USART_DMACmd
                0x08001bf2       0x48 stm32f4xx_usart.o
                0x08001bf2                USART_DMACmd
 .text._exit    0x08001c3a        0xa syscalls_stm32f4xx.o
                0x08001c3a                _exit
 .text.SystemInit
                0x08001c44       0x6c system_stm32f4xx.o
                0x08001c44                SystemInit
 .text.SystemCoreClockUpdate
                0x08001cb0       0xf8 system_stm32f4xx.o
                0x08001cb0                SystemCoreClockUpdate
 .text.SetSysClock
                0x08001da8       0xf8 system_stm32f4xx.o
 .text.resetXILWriteBuffer
                0x08001ea0       0x60 xil_data_stream.o
                0x08001ea0                resetXILWriteBuffer
 .text.silpilInit
                0x08001f00       0x20 xil_data_stream.o
                0x08001f00                silpilInit
 .text.sendWriteBuffer
                0x08001f20       0x44 xil_data_stream.o
 .text.xilWriteData
                0x08001f64       0x9c xil_data_stream.o
                0x08001f64                xilWriteData
 .text.xilReadData
                0x08002000       0xac xil_data_stream.o
                0x08002000                xilReadData
 .text.xilDataFlush
                0x080020ac       0x40 xil_data_stream.o
                0x080020ac                xilDataFlush
 .text.xilProcessParams
                0x080020ec       0x20 xil_interface.o
                0x080020ec                xilProcessParams
 .text.xilGetDataTypeInfo
                0x0800210c       0x5c xil_interface.o
                0x0800210c                xilGetDataTypeInfo
 .text.xilInitialize
                0x08002168       0x26 xil_interface.o
                0x08002168                xilInitialize
 .text.xilPause
                0x0800218e       0x24 xil_interface.o
                0x0800218e                xilPause
 .text.xilSystemInitialize
                0x080021b2       0x24 xil_interface.o
                0x080021b2                xilSystemInitialize
 .text.xilSystemReset
                0x080021d6       0x24 xil_interface.o
                0x080021d6                xilSystemReset
 *fill*         0x080021fa        0x2 
 .text.xilGetHostToTargetData
                0x080021fc       0xa0 xil_interface.o
                0x080021fc                xilGetHostToTargetData
 .text.xilOutput
                0x0800229c       0x2e xil_interface.o
                0x0800229c                xilOutput
 .text.xilUpdate
                0x080022ca       0x22 xil_interface.o
                0x080022ca                xilUpdate
 .text.xilGetTargetToHostData
                0x080022ec      0x10c xil_interface.o
                0x080022ec                xilGetTargetToHostData
 .text.xilTerminate
                0x080023f8       0x20 xil_interface.o
                0x080023f8                xilTerminate
 .text.xilEnable
                0x08002418       0x22 xil_interface.o
                0x08002418                xilEnable
 .text.xilDisable
                0x0800243a       0x22 xil_interface.o
                0x0800243a                xilDisable
 .text.getNextXILIOData
                0x0800245c       0x28 xil_interface_lib.o
 .text.processHostToTargetData
                0x08002484       0xa4 xil_interface_lib.o
 .text.processTargetToHostData
                0x08002528       0xa4 xil_interface_lib.o
 .text.finalizeCommandResponse
                0x080025cc       0x66 xil_interface_lib.o
 *fill*         0x08002632        0x2 
 .text.computeNextState
                0x08002634      0x200 xil_interface_lib.o
 .text.xilReadCommandCode
                0x08002834       0x88 xil_interface_lib.o
 .text.xilProcessMsg
                0x080028bc      0x494 xil_interface_lib.o
                0x080028bc                xilProcessMsg
 .text.commsRun
                0x08002d50       0x18 xil_interface_lib.o
                0x08002d50                commsRun
 .text.xilRun   0x08002d68       0x58 xil_interface_lib.o
                0x08002d68                xilRun
 .text.xilTgtAppSvcCreate
                0x08002dc0       0x10 xil_rtiostream.o
                0x08002dc0                xilTgtAppSvcCreate
 .text.xilTgtAppSvcAllocBuffer
                0x08002dd0       0x24 xil_rtiostream.o
                0x08002dd0                xilTgtAppSvcAllocBuffer
 .text.xilTgtAppSvcGetBufferDataPtr
                0x08002df4       0x1c xil_rtiostream.o
                0x08002df4                xilTgtAppSvcGetBufferDataPtr
 .text.xilTgtAppSvcSend
                0x08002e10       0x24 xil_rtiostream.o
                0x08002e10                xilTgtAppSvcSend
 .text.xilInit  0x08002e34       0x44 xil_services.o
                0x08002e34                xilInit
 .text.commsInit
                0x08002e78       0x34 xilcomms_rtiostream.o
                0x08002e78                commsInit
 .text.commsEnqueueBuffer
                0x08002eac       0x68 xilcomms_rtiostream.o
                0x08002eac                commsEnqueueBuffer
 .text.rtiostreamReadMessage
                0x08002f14       0x7c xilcomms_rtiostream.o
                0x08002f14                rtiostreamReadMessage
 .text.Discrete_step
                0x08002f90      0x114 ../Discrete.o
                0x08002f90                Discrete_step
 .text.Discrete_initialize
                0x080030a4       0x60 ../Discrete.o
                0x080030a4                Discrete_initialize
 .text.Discrete_terminate
                0x08003104        0xe ../Discrete.o
                0x08003104                Discrete_terminate
 *fill*         0x08003112        0x2 
 .text.Discrete_caRunTests
                0x08003114       0x2c G:/data/mydata/STM32_PIL/Discrete_ert_rtw/coderassumptions/lib/Discrete_ca.lib(Discrete_ca.o)
                0x08003114                Discrete_caRunTests
 .text.numBits  0x08003140       0x2e G:/data/mydata/STM32_PIL/Discrete_ert_rtw/coderassumptions/lib/Discrete_ca.lib(coder_assumptions_hwimpl.o)
 .text.getBitsPerMemUnit
                0x0800316e       0x20 G:/data/mydata/STM32_PIL/Discrete_ert_rtw/coderassumptions/lib/Discrete_ca.lib(coder_assumptions_hwimpl.o)
 .text.getCPUInfo
                0x0800318e      0x216 G:/data/mydata/STM32_PIL/Discrete_ert_rtw/coderassumptions/lib/Discrete_ca.lib(coder_assumptions_hwimpl.o)
 .text.testPass
                0x080033a4       0x30 G:/data/mydata/STM32_PIL/Discrete_ert_rtw/coderassumptions/lib/Discrete_ca.lib(coder_assumptions_hwimpl.o)
 .text.testFail
                0x080033d4       0x30 G:/data/mydata/STM32_PIL/Discrete_ert_rtw/coderassumptions/lib/Discrete_ca.lib(coder_assumptions_hwimpl.o)
 .text.testWarn
                0x08003404       0x30 G:/data/mydata/STM32_PIL/Discrete_ert_rtw/coderassumptions/lib/Discrete_ca.lib(coder_assumptions_hwimpl.o)
 .text.testSkip
                0x08003434       0x30 G:/data/mydata/STM32_PIL/Discrete_ert_rtw/coderassumptions/lib/Discrete_ca.lib(coder_assumptions_hwimpl.o)
 .text.testReview
                0x08003464       0x30 G:/data/mydata/STM32_PIL/Discrete_ert_rtw/coderassumptions/lib/Discrete_ca.lib(coder_assumptions_hwimpl.o)
 .text.runTest  0x08003494       0x42 G:/data/mydata/STM32_PIL/Discrete_ert_rtw/coderassumptions/lib/Discrete_ca.lib(coder_assumptions_hwimpl.o)
 .text.caVerifyPortableWordSizes
                0x080034d6       0x58 G:/data/mydata/STM32_PIL/Discrete_ert_rtw/coderassumptions/lib/Discrete_ca.lib(coder_assumptions_hwimpl.o)
                0x080034d6                caVerifyPortableWordSizes
 *fill*         0x0800352e        0x2 
 .text.caVerifyHWImpl
                0x08003530      0x464 G:/data/mydata/STM32_PIL/Discrete_ert_rtw/coderassumptions/lib/Discrete_ca.lib(coder_assumptions_hwimpl.o)
                0x08003530                caVerifyHWImpl
 .text          0x08003994      0x378 c:/progra~3/matlab/suppor~1/r2018b/3p778c~1.ins/gnuarm~1.ins/win/bin/../lib/gcc/arm-none-eabi/7.2.1/thumb/v7e-m/fpv4-sp/hard\libgcc.a(_arm_addsubdf3.o)
                0x08003994                __aeabi_drsub
                0x0800399c                __aeabi_dsub
                0x0800399c                __subdf3
                0x080039a0                __aeabi_dadd
                0x080039a0                __adddf3
                0x08003c18                __floatunsidf
                0x08003c18                __aeabi_ui2d
                0x08003c38                __floatsidf
                0x08003c38                __aeabi_i2d
                0x08003c5c                __aeabi_f2d
                0x08003c5c                __extendsfdf2
                0x08003ca0                __floatundidf
                0x08003ca0                __aeabi_ul2d
                0x08003cb0                __floatdidf
                0x08003cb0                __aeabi_l2d
 .text          0x08003d0c      0x424 c:/progra~3/matlab/suppor~1/r2018b/3p778c~1.ins/gnuarm~1.ins/win/bin/../lib/gcc/arm-none-eabi/7.2.1/thumb/v7e-m/fpv4-sp/hard\libgcc.a(_arm_muldivdf3.o)
                0x08003d0c                __aeabi_dmul
                0x08003d0c                __muldf3
                0x08003f60                __divdf3
                0x08003f60                __aeabi_ddiv
 .text          0x08004130      0x110 c:/progra~3/matlab/suppor~1/r2018b/3p778c~1.ins/gnuarm~1.ins/win/bin/../lib/gcc/arm-none-eabi/7.2.1/thumb/v7e-m/fpv4-sp/hard\libgcc.a(_arm_cmpdf2.o)
                0x08004130                __gtdf2
                0x08004130                __gedf2
                0x08004138                __ltdf2
                0x08004138                __ledf2
                0x08004140                __nedf2
                0x08004140                __eqdf2
                0x08004140                __cmpdf2
                0x080041bc                __aeabi_cdrcmple
                0x080041cc                __aeabi_cdcmpeq
                0x080041cc                __aeabi_cdcmple
                0x080041dc                __aeabi_dcmpeq
                0x080041f0                __aeabi_dcmplt
                0x08004204                __aeabi_dcmple
                0x08004218                __aeabi_dcmpge
                0x0800422c                __aeabi_dcmpgt
 .text.exit     0x08004240       0x28 c:/progra~3/matlab/suppor~1/r2018b/3p778c~1.ins/gnuarm~1.ins/win/bin/../lib/gcc/arm-none-eabi/7.2.1/../../../../arm-none-eabi/lib/thumb/v7e-m/fpv4-sp/hard\libc_nano.a(lib_a-exit.o)
                0x08004240                exit
 .text.__libc_init_array
                0x08004268       0x48 c:/progra~3/matlab/suppor~1/r2018b/3p778c~1.ins/gnuarm~1.ins/win/bin/../lib/gcc/arm-none-eabi/7.2.1/../../../../arm-none-eabi/lib/thumb/v7e-m/fpv4-sp/hard\libc_nano.a(lib_a-init.o)
                0x08004268                __libc_init_array
 .text.memcpy   0x080042b0       0x16 c:/progra~3/matlab/suppor~1/r2018b/3p778c~1.ins/gnuarm~1.ins/win/bin/../lib/gcc/arm-none-eabi/7.2.1/../../../../arm-none-eabi/lib/thumb/v7e-m/fpv4-sp/hard\libc_nano.a(lib_a-memcpy-stub.o)
                0x080042b0                memcpy
 .text.memset   0x080042c6       0x10 c:/progra~3/matlab/suppor~1/r2018b/3p778c~1.ins/gnuarm~1.ins/win/bin/../lib/gcc/arm-none-eabi/7.2.1/../../../../arm-none-eabi/lib/thumb/v7e-m/fpv4-sp/hard\libc_nano.a(lib_a-memset.o)
                0x080042c6                memset
 *(.init)
 *fill*         0x080042d6        0x2 
 .init          0x080042d8        0x4 c:/progra~3/matlab/suppor~1/r2018b/3p778c~1.ins/gnuarm~1.ins/win/bin/../lib/gcc/arm-none-eabi/7.2.1/thumb/v7e-m/fpv4-sp/hard/crti.o
                0x080042d8                _init
 .init          0x080042dc        0x8 c:/progra~3/matlab/suppor~1/r2018b/3p778c~1.ins/gnuarm~1.ins/win/bin/../lib/gcc/arm-none-eabi/7.2.1/thumb/v7e-m/fpv4-sp/hard/crtn.o
 *(.fini)
 .fini          0x080042e4        0x4 c:/progra~3/matlab/suppor~1/r2018b/3p778c~1.ins/gnuarm~1.ins/win/bin/../lib/gcc/arm-none-eabi/7.2.1/thumb/v7e-m/fpv4-sp/hard/crti.o
                0x080042e4                _fini
 .fini          0x080042e8        0x8 c:/progra~3/matlab/suppor~1/r2018b/3p778c~1.ins/gnuarm~1.ins/win/bin/../lib/gcc/arm-none-eabi/7.2.1/thumb/v7e-m/fpv4-sp/hard/crtn.o
 *crtbegin.o(.ctors)
 *crtbegin?.o(.ctors)
 *(EXCLUDE_FILE(*crtend.o *crtend?.o) .ctors)
 *(SORT_BY_NAME(.ctors.*))
 *(.ctors)
 *crtbegin.o(.dtors)
 *crtbegin?.o(.dtors)
 *(EXCLUDE_FILE(*crtend.o *crtend?.o) .dtors)
 *(SORT_BY_NAME(.dtors.*))
 *(.dtors)
 *(.rodata*)
 .rodata        0x080042f0       0x1b G:/data/mydata/STM32_PIL/Discrete_ert_rtw/coderassumptions/lib/Discrete_ca.lib(Discrete_ca.o)
 *fill*         0x0800430b        0x1 
 .rodata.CA_Discrete_ExpHW
                0x0800430c       0x48 G:/data/mydata/STM32_PIL/Discrete_ert_rtw/coderassumptions/lib/Discrete_ca.lib(Discrete_ca.o)
                0x0800430c                CA_Discrete_ExpHW
 .rodata._global_impure_ptr
                0x08004354        0x4 c:/progra~3/matlab/suppor~1/r2018b/3p778c~1.ins/gnuarm~1.ins/win/bin/../lib/gcc/arm-none-eabi/7.2.1/../../../../arm-none-eabi/lib/thumb/v7e-m/fpv4-sp/hard\libc_nano.a(lib_a-impure.o)
                0x08004354                _global_impure_ptr
 *(.eh_fram e*)

.eh_frame       0x08004358        0x0
 .eh_frame      0x08004358        0x0 c:/progra~3/matlab/suppor~1/r2018b/3p778c~1.ins/gnuarm~1.ins/win/bin/../lib/gcc/arm-none-eabi/7.2.1/thumb/v7e-m/fpv4-sp/hard/crtbegin.o

.glue_7         0x08004358        0x0
 .glue_7        0x08004358        0x0 linker stubs

.glue_7t        0x08004358        0x0
 .glue_7t       0x08004358        0x0 linker stubs

.vfp11_veneer   0x08004358        0x0
 .vfp11_veneer  0x08004358        0x0 linker stubs

.v4_bx          0x08004358        0x0
 .v4_bx         0x08004358        0x0 linker stubs

.iplt           0x08004358        0x0
 .iplt          0x08004358        0x0 c:/progra~3/matlab/suppor~1/r2018b/3p778c~1.ins/gnuarm~1.ins/win/bin/../lib/gcc/arm-none-eabi/7.2.1/thumb/v7e-m/fpv4-sp/hard/crtbegin.o

.ARM.extab
 *(.ARM.extab* .gnu.linkonce.armextab.*)
                0x08004358                __exidx_start = .

.ARM.exidx      0x08004358        0x8
 *(.ARM.exidx* .gnu.linkonce.armexidx.*)
 .ARM.exidx     0x08004358        0x8 c:/progra~3/matlab/suppor~1/r2018b/3p778c~1.ins/gnuarm~1.ins/win/bin/../lib/gcc/arm-none-eabi/7.2.1/../../../../arm-none-eabi/lib/thumb/v7e-m/fpv4-sp/hard/crt0.o
                0x08004360                __exidx_end = .

.rel.dyn        0x08004360        0x0
 .rel.iplt      0x08004360        0x0 c:/progra~3/matlab/suppor~1/r2018b/3p778c~1.ins/gnuarm~1.ins/win/bin/../lib/gcc/arm-none-eabi/7.2.1/thumb/v7e-m/fpv4-sp/hard/crtbegin.o
                0x08004360                . = ALIGN (0x4)
                0x08004360                _etext = .
                0x08004360                _sidata = .

.data           0x20000000       0xe0 load address 0x08004360
                0x20000000                __data_start__ = .
                0x20000000                _sdata = __data_start__
 *(vtable)
 *(.data*)
 .data.APBAHBPrescTable
                0x20000000       0x10 stm32f4xx_rcc.o
 .data.SystemCoreClock
                0x20000010        0x4 system_stm32f4xx.o
                0x20000010                SystemCoreClock
 .data.AHBPrescTable
                0x20000014       0x10 system_stm32f4xx.o
                0x20000014                AHBPrescTable
 .data.processMsgSuccess
                0x20000024        0x4 xil_interface_lib.o
 .data.Discrete_P
                0x20000028       0x40 ../Discrete_data.o
                0x20000028                Discrete_P
 .data.realmin  0x20000068        0x8 G:/data/mydata/STM32_PIL/Discrete_ert_rtw/coderassumptions/lib/Discrete_ca.lib(coder_assumptions_hwimpl.o)
 .data.denormalAsZero
                0x20000070        0x8 G:/data/mydata/STM32_PIL/Discrete_ert_rtw/coderassumptions/lib/Discrete_ca.lib(coder_assumptions_flt.o)
                0x20000070                denormalAsZero
 .data.impure_data
                0x20000078       0x60 c:/progra~3/matlab/suppor~1/r2018b/3p778c~1.ins/gnuarm~1.ins/win/bin/../lib/gcc/arm-none-eabi/7.2.1/../../../../arm-none-eabi/lib/thumb/v7e-m/fpv4-sp/hard\libc_nano.a(lib_a-impure.o)
                0x200000d8                . = ALIGN (0x4)
                0x200000d8                PROVIDE (__preinit_array_start, .)
 *(.preinit_array)
                0x200000d8                PROVIDE (__preinit_array_end, .)
                0x200000d8                . = ALIGN (0x4)
                0x200000d8                PROVIDE (__init_array_start, .)
 *(SORT_BY_NAME(.init_array.*))
 *(.init_array)
 .init_array    0x200000d8        0x4 c:/progra~3/matlab/suppor~1/r2018b/3p778c~1.ins/gnuarm~1.ins/win/bin/../lib/gcc/arm-none-eabi/7.2.1/thumb/v7e-m/fpv4-sp/hard/crtbegin.o
                0x200000dc                PROVIDE (__init_array_end, .)
                0x200000dc                . = ALIGN (0x4)
                [!provide]                PROVIDE (__fini_array_start, .)
 *(SORT_BY_NAME(.fini_array.*))
 *(.fini_array)
 .fini_array    0x200000dc        0x4 c:/progra~3/matlab/suppor~1/r2018b/3p778c~1.ins/gnuarm~1.ins/win/bin/../lib/gcc/arm-none-eabi/7.2.1/thumb/v7e-m/fpv4-sp/hard/crtbegin.o
                [!provide]                PROVIDE (__fini_array_end, .)
 *(.jcr*)
                0x200000e0                . = ALIGN (0x4)
                0x200000e0                __data_end__ = .
                0x200000e0                _edata = __data_end__

.igot.plt       0x200000e0        0x0 load address 0x08004440
 .igot.plt      0x200000e0        0x0 c:/progra~3/matlab/suppor~1/r2018b/3p778c~1.ins/gnuarm~1.ins/win/bin/../lib/gcc/arm-none-eabi/7.2.1/thumb/v7e-m/fpv4-sp/hard/crtbegin.o

.bss            0x200000e0      0xebc load address 0x08004440
                0x200000e0                . = ALIGN (0x4)
                0x200000e0                _sbss = .
                0x200000e0                __bss_start__ = _sbss
 *(.bss .bss.*)
 .bss           0x200000e0       0x1c c:/progra~3/matlab/suppor~1/r2018b/3p778c~1.ins/gnuarm~1.ins/win/bin/../lib/gcc/arm-none-eabi/7.2.1/thumb/v7e-m/fpv4-sp/hard/crtbegin.o
 .bss.pwsEnabled
                0x200000fc        0x1 coder_assumptions_app.o
 *fill*         0x200000fd        0x3 
 .bss.pBuffer   0x20000100        0x4 coder_assumptions_data_stream.o
 .bss.coderAssumptionsWriteDataPtr
                0x20000104        0x4 coder_assumptions_data_stream.o
 .bss.coderAssumptionsWriteDataAvail
                0x20000108        0x2 coder_assumptions_data_stream.o
 *fill*         0x2000010a        0x2 
 .bss.coderAssumpWriteBuffer
                0x2000010c       0x20 coder_assumptions_rtiostream.o
 .bss.MW_USART_ERRNO
                0x2000012c        0x4 rtiostream_serial_dma_stm32f4xx.o
                0x2000012c                MW_USART_ERRNO
 .bss.UART_rxBuffer
                0x20000130      0x800 rtiostream_serial_dma_stm32f4xx.o
 .bss.UART_txBuffer
                0x20000930      0x400 rtiostream_serial_dma_stm32f4xx.o
 .bss.UART_Rx   0x20000d30        0x8 rtiostream_serial_dma_stm32f4xx.o
 .bss.UART_Tx   0x20000d38       0x48 rtiostream_serial_dma_stm32f4xx.o
 .bss.pBuffer   0x20000d80        0x4 xil_data_stream.o
 .bss.xilWriteBuffer
                0x20000d84        0x4 xil_data_stream.o
 .bss.xilWriteDataPtr
                0x20000d88        0x4 xil_data_stream.o
 .bss.xilWriteDataAvail
                0x20000d8c        0x2 xil_data_stream.o
 *fill*         0x20000d8e        0x2 
 .bss.commandResponseType
                0x20000d90        0x4 xil_data_stream.o
 .bss.currentBufSize.9678
                0x20000d94        0x2 xil_data_stream.o
 *fill*         0x20000d96        0x2 
 .bss.currentBufferPosition.9677
                0x20000d98        0x4 xil_data_stream.o
 .bss.xil_fcnid0_task1_output_u
                0x20000d9c       0x10 xil_interface.o
 .bss.xil_fcnid0_task1_y
                0x20000dac       0x10 xil_interface.o
 .bss.xil_fcnid0_init_y
                0x20000dbc       0x10 xil_interface.o
 .bss.initComplete.9808
                0x20000dcc        0x4 xil_interface.o
 .bss.initComplete.9832
                0x20000dd0        0x4 xil_interface.o
 .bss.initComplete.9837
                0x20000dd4        0x4 xil_interface.o
 .bss.xilIODataPtr
                0x20000dd8        0x4 xil_interface_lib.o
 .bss.isShutdownCommand
                0x20000ddc        0x4 xil_interface_lib.o
 .bss.serverFcnId
                0x20000de0        0x4 xil_interface_lib.o
 .bss.cc        0x20000de4        0xc xil_interface_lib.o
 .bss.uDataAddress.9708
                0x20000df0        0x4 xil_interface_lib.o
 .bss.uDataLength.9709
                0x20000df4        0x4 xil_interface_lib.o
 .bss.xilWriteBuffer
                0x20000df8       0x80 xil_rtiostream.o
 .bss.streamID  0x20000e78        0x4 xilcomms_rtiostream.o
 .bss.xilCommsBuffer
                0x20000e7c       0x80 xilcomms_rtiostream.o
 *(COMMON)
 *fill*         0x20000efc        0x4 
 COMMON         0x20000f00       0x28 ../Discrete.o
                0x20000f00                Discrete_U
                0x20000f08                Discrete_DW
                0x20000f18                Discrete_M_
                0x20000f20                Discrete_Y
 COMMON         0x20000f28       0x6e G:/data/mydata/STM32_PIL/Discrete_ert_rtw/coderassumptions/lib/Discrete_ca.lib(Discrete_ca.o)
                0x20000f28                CA_Discrete_HWRes
                0x20000f4c                CA_Discrete_ActHW
                0x20000f94                CA_Discrete_PWSRes
 *fill*         0x20000f96        0x2 
 COMMON         0x20000f98        0x4 G:/data/mydata/STM32_PIL/Discrete_ert_rtw/coderassumptions/lib/Discrete_ca.lib(coder_assumptions_hwimpl.o)
                0x20000f98                aGlobalInt
                0x20000f9c                . = ALIGN (0x4)
                0x20000f9c                _ebss = .
                0x20000f9c                __bss_end__ = _ebss

.co_stack       0x10000000     0x2040
                0x10000000                . = ALIGN (0x8)
                0x10000000                __stack_end__ = .
 *(.co_stack .co_stack.*)
 .co_stack      0x10000000     0x2040 startup_stm32f4xx.o
                0x10000000                pulStack
                0x10002040                __stack_start__ = .
                0x10002040                . = ALIGN (0x8)
                0x10002040                _end_ccmram = .
                0x10002040                PROVIDE (_sheap, _end_ccmram)
                0x10010000                PROVIDE (_eheap, ALIGN ((ORIGIN (CCMRAM) + LENGTH (CCMRAM)), 0x8))
                0x10002040                PROVIDE (__stack, __stack_start__)
OUTPUT(./Discrete.elf elf32-littlearm)

.ARM.attributes
                0x00000000       0x30
 .ARM.attributes
                0x00000000       0x22 c:/progra~3/matlab/suppor~1/r2018b/3p778c~1.ins/gnuarm~1.ins/win/bin/../lib/gcc/arm-none-eabi/7.2.1/thumb/v7e-m/fpv4-sp/hard/crti.o
 .ARM.attributes
                0x00000022       0x34 c:/progra~3/matlab/suppor~1/r2018b/3p778c~1.ins/gnuarm~1.ins/win/bin/../lib/gcc/arm-none-eabi/7.2.1/thumb/v7e-m/fpv4-sp/hard/crtbegin.o
 .ARM.attributes
                0x00000056       0x20 c:/progra~3/matlab/suppor~1/r2018b/3p778c~1.ins/gnuarm~1.ins/win/bin/../lib/gcc/arm-none-eabi/7.2.1/../../../../arm-none-eabi/lib/thumb/v7e-m/fpv4-sp/hard/crt0.o
 .ARM.attributes
                0x00000076       0x39 coder_assumptions_app.o
 .ARM.attributes
                0x000000af       0x39 coder_assumptions_data_stream.o
 .ARM.attributes
                0x000000e8       0x39 coder_assumptions_rtiostream.o
 .ARM.attributes
                0x00000121       0x39 misc.o
 .ARM.attributes
                0x0000015a       0x39 pil_main_stm32f4xx.o
 .ARM.attributes
                0x00000193       0x39 rtiostream_serial_dma_stm32f4xx.o
 .ARM.attributes
                0x000001cc       0x39 rtiostream_utils.o
 .ARM.attributes
                0x00000205       0x39 startup_stm32f4xx.o
 .ARM.attributes
                0x0000023e       0x39 stm32f4xx_dma.o
 .ARM.attributes
                0x00000277       0x39 stm32f4xx_gpio.o
 .ARM.attributes
                0x000002b0       0x39 stm32f4xx_rcc.o
 .ARM.attributes
                0x000002e9       0x39 stm32f4xx_usart.o
 .ARM.attributes
                0x00000322       0x39 syscalls_stm32f4xx.o
 .ARM.attributes
                0x0000035b       0x39 system_stm32f4xx.o
 .ARM.attributes
                0x00000394       0x39 xil_data_stream.o
 .ARM.attributes
                0x000003cd       0x39 xil_interface.o
 .ARM.attributes
                0x00000406       0x39 xil_interface_lib.o
 .ARM.attributes
                0x0000043f       0x39 xil_rtiostream.o
 .ARM.attributes
                0x00000478       0x39 xil_services.o
 .ARM.attributes
                0x000004b1       0x39 xilcomms_rtiostream.o
 .ARM.attributes
                0x000004ea       0x39 ../Discrete.o
 .ARM.attributes
                0x00000523       0x39 ../Discrete_data.o
 .ARM.attributes
                0x0000055c       0x39 G:/data/mydata/STM32_PIL/Discrete_ert_rtw/coderassumptions/lib/Discrete_ca.lib(Discrete_ca.o)
 .ARM.attributes
                0x00000595       0x39 G:/data/mydata/STM32_PIL/Discrete_ert_rtw/coderassumptions/lib/Discrete_ca.lib(coder_assumptions_hwimpl.o)
 .ARM.attributes
                0x000005ce       0x39 G:/data/mydata/STM32_PIL/Discrete_ert_rtw/coderassumptions/lib/Discrete_ca.lib(coder_assumptions_flt.o)
 .ARM.attributes
                0x00000607       0x22 c:/progra~3/matlab/suppor~1/r2018b/3p778c~1.ins/gnuarm~1.ins/win/bin/../lib/gcc/arm-none-eabi/7.2.1/thumb/v7e-m/fpv4-sp/hard\libgcc.a(_arm_addsubdf3.o)
 .ARM.attributes
                0x00000629       0x22 c:/progra~3/matlab/suppor~1/r2018b/3p778c~1.ins/gnuarm~1.ins/win/bin/../lib/gcc/arm-none-eabi/7.2.1/thumb/v7e-m/fpv4-sp/hard\libgcc.a(_arm_muldivdf3.o)
 .ARM.attributes
                0x0000064b       0x22 c:/progra~3/matlab/suppor~1/r2018b/3p778c~1.ins/gnuarm~1.ins/win/bin/../lib/gcc/arm-none-eabi/7.2.1/thumb/v7e-m/fpv4-sp/hard\libgcc.a(_arm_cmpdf2.o)
 .ARM.attributes
                0x0000066d       0x34 c:/progra~3/matlab/suppor~1/r2018b/3p778c~1.ins/gnuarm~1.ins/win/bin/../lib/gcc/arm-none-eabi/7.2.1/../../../../arm-none-eabi/lib/thumb/v7e-m/fpv4-sp/hard\libc_nano.a(lib_a-exit.o)
 .ARM.attributes
                0x000006a1       0x34 c:/progra~3/matlab/suppor~1/r2018b/3p778c~1.ins/gnuarm~1.ins/win/bin/../lib/gcc/arm-none-eabi/7.2.1/../../../../arm-none-eabi/lib/thumb/v7e-m/fpv4-sp/hard\libc_nano.a(lib_a-impure.o)
 .ARM.attributes
                0x000006d5       0x34 c:/progra~3/matlab/suppor~1/r2018b/3p778c~1.ins/gnuarm~1.ins/win/bin/../lib/gcc/arm-none-eabi/7.2.1/../../../../arm-none-eabi/lib/thumb/v7e-m/fpv4-sp/hard\libc_nano.a(lib_a-init.o)
 .ARM.attributes
                0x00000709       0x34 c:/progra~3/matlab/suppor~1/r2018b/3p778c~1.ins/gnuarm~1.ins/win/bin/../lib/gcc/arm-none-eabi/7.2.1/../../../../arm-none-eabi/lib/thumb/v7e-m/fpv4-sp/hard\libc_nano.a(lib_a-memcpy-stub.o)
 .ARM.attributes
                0x0000073d       0x34 c:/progra~3/matlab/suppor~1/r2018b/3p778c~1.ins/gnuarm~1.ins/win/bin/../lib/gcc/arm-none-eabi/7.2.1/../../../../arm-none-eabi/lib/thumb/v7e-m/fpv4-sp/hard\libc_nano.a(lib_a-memset.o)
 .ARM.attributes
                0x00000771       0x22 c:/progra~3/matlab/suppor~1/r2018b/3p778c~1.ins/gnuarm~1.ins/win/bin/../lib/gcc/arm-none-eabi/7.2.1/thumb/v7e-m/fpv4-sp/hard/crtn.o

.comment        0x00000000       0x7e
 .comment       0x00000000       0x7e coder_assumptions_app.o
                                 0x7f (size before relaxing)
 .comment       0x0000007e       0x7f coder_assumptions_data_stream.o
 .comment       0x0000007e       0x7f coder_assumptions_rtiostream.o
 .comment       0x0000007e       0x7f misc.o
 .comment       0x0000007e       0x7f pil_main_stm32f4xx.o
 .comment       0x0000007e       0x7f rtiostream_serial_dma_stm32f4xx.o
 .comment       0x0000007e       0x7f rtiostream_utils.o
 .comment       0x0000007e       0x7f startup_stm32f4xx.o
 .comment       0x0000007e       0x7f stm32f4xx_dma.o
 .comment       0x0000007e       0x7f stm32f4xx_gpio.o
 .comment       0x0000007e       0x7f stm32f4xx_rcc.o
 .comment       0x0000007e       0x7f stm32f4xx_usart.o
 .comment       0x0000007e       0x7f syscalls_stm32f4xx.o
 .comment       0x0000007e       0x7f system_stm32f4xx.o
 .comment       0x0000007e       0x7f xil_data_stream.o
 .comment       0x0000007e       0x7f xil_interface.o
 .comment       0x0000007e       0x7f xil_interface_lib.o
 .comment       0x0000007e       0x7f xil_rtiostream.o
 .comment       0x0000007e       0x7f xil_services.o
 .comment       0x0000007e       0x7f xilcomms_rtiostream.o
 .comment       0x0000007e       0x7f ../Discrete.o
 .comment       0x0000007e       0x7f ../Discrete_data.o
 .comment       0x0000007e       0x7f G:/data/mydata/STM32_PIL/Discrete_ert_rtw/coderassumptions/lib/Discrete_ca.lib(Discrete_ca.o)
 .comment       0x0000007e       0x7f G:/data/mydata/STM32_PIL/Discrete_ert_rtw/coderassumptions/lib/Discrete_ca.lib(coder_assumptions_hwimpl.o)
 .comment       0x0000007e       0x7f G:/data/mydata/STM32_PIL/Discrete_ert_rtw/coderassumptions/lib/Discrete_ca.lib(coder_assumptions_flt.o)

.debug_frame    0x00000000      0x25c
 .debug_frame   0x00000000       0xac c:/progra~3/matlab/suppor~1/r2018b/3p778c~1.ins/gnuarm~1.ins/win/bin/../lib/gcc/arm-none-eabi/7.2.1/thumb/v7e-m/fpv4-sp/hard\libgcc.a(_arm_addsubdf3.o)
 .debug_frame   0x000000ac       0x50 c:/progra~3/matlab/suppor~1/r2018b/3p778c~1.ins/gnuarm~1.ins/win/bin/../lib/gcc/arm-none-eabi/7.2.1/thumb/v7e-m/fpv4-sp/hard\libgcc.a(_arm_muldivdf3.o)
 .debug_frame   0x000000fc       0xc4 c:/progra~3/matlab/suppor~1/r2018b/3p778c~1.ins/gnuarm~1.ins/win/bin/../lib/gcc/arm-none-eabi/7.2.1/thumb/v7e-m/fpv4-sp/hard\libgcc.a(_arm_cmpdf2.o)
 .debug_frame   0x000001c0       0x28 c:/progra~3/matlab/suppor~1/r2018b/3p778c~1.ins/gnuarm~1.ins/win/bin/../lib/gcc/arm-none-eabi/7.2.1/../../../../arm-none-eabi/lib/thumb/v7e-m/fpv4-sp/hard\libc_nano.a(lib_a-exit.o)
 .debug_frame   0x000001e8       0x2c c:/progra~3/matlab/suppor~1/r2018b/3p778c~1.ins/gnuarm~1.ins/win/bin/../lib/gcc/arm-none-eabi/7.2.1/../../../../arm-none-eabi/lib/thumb/v7e-m/fpv4-sp/hard\libc_nano.a(lib_a-init.o)
 .debug_frame   0x00000214       0x28 c:/progra~3/matlab/suppor~1/r2018b/3p778c~1.ins/gnuarm~1.ins/win/bin/../lib/gcc/arm-none-eabi/7.2.1/../../../../arm-none-eabi/lib/thumb/v7e-m/fpv4-sp/hard\libc_nano.a(lib_a-memcpy-stub.o)
 .debug_frame   0x0000023c       0x20 c:/progra~3/matlab/suppor~1/r2018b/3p778c~1.ins/gnuarm~1.ins/win/bin/../lib/gcc/arm-none-eabi/7.2.1/../../../../arm-none-eabi/lib/thumb/v7e-m/fpv4-sp/hard\libc_nano.a(lib_a-memset.o)
